:020000040800F2
:10000000E80A002089010008910100089301000816
:100010009501000897010008990100080000000000
:100020000000000000000000000000009B0100082C
:100030009D010008000000009F0100082D08000835
:10004000A3010008A3010008A3010008A301000800
:10005000A3010008A3010008A3010008A3010008F0
:10006000A3010008A3010008A3010008A3010008E0
:10007000A3010008A3010008A3010008A3010008D0
:10008000A3010008A3010008A3010008A3010008C0
:10009000A3010008A3010008A30100087D030008D4
:1000A000A3010008A3010008A3010008A3010008A0
:1000B000A3010008A3010008A3010008A301000890
:1000C000A3010008A3010008A3010008A301000880
:1000D000A3010008A3010008A3010008A301000870
:1000E000E5020008A3010008A301000800F002F8DF
:1000F00000F03AF80AA090E8000C82448344AAF188
:100100000107DA4501D100F02FF8AFF2090EBAE885
:100110000F0013F0010F18BFFB1A43F0010318473B
:100120007435000094350000103A24BF78C878C1B7
:10013000FAD8520724BF30C830C144BF04680C60ED
:10014000704700000023002400250026103A28BF35
:1001500078C1FBD8520728BF30C148BF0B60704739
:100160001FB51FBD10B510BD00F082F81146FFF796
:10017000F7FF00F05DFC00F0A0F803B4FFF7F2FF1A
:1001800003BC00F0A7F80000094880470948004771
:10019000FEE7FEE7FEE7FEE7FEE7FEE7FEE7FEE737
:1001A000FEE7FEE704480549054A064B7047000094
:1001B0003D080008ED000008E8040020E80A0020DF
:1001C000E8060020E806002002F0FF0343EA0322CD
:1001D00042EA024200F005B87047704770474FF09E
:1001E00000020429C0F0128010F0030C00F01B8004
:1001F000CCF1040CBCF1020F18BF00F8012BA8BF12
:1002000020F8022BA1EB0C0100F00DB85FEAC17CD5
:1002100024BF00F8012B00F8012B48BF00F8012B88
:1002200070474FF0000200B51346944696462039B9
:1002300022BFA0E80C50A0E80C50B1F12001BFF49F
:10024000F7AF090728BFA0E80C5048BF0CC05DF805
:1002500004EB890028BF40F8042B08BF704748BF53
:1002600020F8022B11F0804F18BF00F8012B7047C7
:10027000754600F02BF8AE4605006946534620F05F
:100280000700854618B020B5FFF78CFFBDE8204079
:100290004FF000064FF000074FF000084FF0000B42
:1002A00021F00701AC46ACE8C009ACE8C009ACE8F5
:1002B000C009ACE8C0098D46704710B50446AFF3DD
:1002C00000802046BDE81040FFF757BF0048704748
:1002D0008404002001491820ABBEFEE7260002007E
:1002E0007047000010B51F48006800F48060B0F54A
:1002F000806F1ED11C48006800F48060B0F5806FEC
:1003000002D100F049FB0DE000F054FB17480088D3
:10031000B0F5487F03DA01201549087002E0022099
:10032000134908700F48006840F480600D49086068
:1003300016E00C48006800F40060B0F5006F0FD1C3
:100340000C480078032805D10B480078401C40B2C7
:10035000094908700348006840F4006001490860DA
:1003600010BD000014040140080C014024040040AA
:100370008100002080000020140000200B4800684D
:1003800000F48070B0F5807F0FD109480078032811
:1003900005D108480078401E40B20649087003485D
:1003A000006840F4807001490860704714040140FF
:1003B000800000201400002000F01F020121914065
:1003C0004209920002F1E022C2F8001170470000D9
:1003D000F0B503461446802B01DA402900DBF0BD5E
:1003E0002148007920B10CB9012000E0002004462A
:1003F000012C1CD1CD1701EB5575ED1003EBC51584
:100400001A4E755D0A46CE1701EB5676F610A1EB33
:10041000C6070126BE403543EEB20846CD1701EBB4
:100420005575ED1003EBC515104F7E551AE0CD172D
:1004300001EB5575ED1003EBC5150C4E755D0A46C5
:10044000CE1701EB5676F610A1EBC6070126BE408B
:10045000B5430846CE1701EB5676F61003EBC616E9
:10046000024FBD5500BFBAE73400002084000020D1
:1004700010B504460CB9002000E0FF2002464FF4FE
:1004800080610248FFF7A0FE10BD0000840000203C
:10049000014A1080518070473400002010B500F0F0
:1004A000DDFB052000F0B8FAAE2300227821584881
:1004B00000F07AFC202300227821554800F074FCDB
:1004C000102300227821524800F06EFCB023002255
:1004D00078214F4800F068FCC823002278214C485E
:1004E00000F062FC00231A467821494800F05CFCC9
:1004F000102300227821464800F056FC40230022B9
:100500007821434800F050FC8123002278214048A4
:1005100000F04AFCFF23002278213D4800F044FC13
:10052000A123002278213A4800F03EFCA6230022B5
:100530007821374800F038FCA8230022782134487D
:1005400000F032FC3F2300227821314800F02CFCDF
:10055000A423002278212E4800F026FCD323002279
:1005600078212B4800F020FC00231A4678212848E7
:1005700000F01AFCD52300227821254800F014FC55
:10058000F02300227821224800F00EFCD92300221B
:1005900078211F4800F008FC2223002278211C4803
:1005A00000F002FCDA2300227821194800F0FCFB5D
:1005B000122300227821164800F0F6FBDB230022EC
:1005C0007821134800F0F0FB202300227821104806
:1005D00000F0EAFB8D23002278210D4800F0E4FBB7
:1005E0001423002278210A4800F0DEFBAF2300220A
:1005F0007821074800F0D8FB0020FFF739FF00F012
:1006000075F800200349088048800120487110BD1A
:1006100000540040340000202DE9F04307460C460A
:1006200090462648008821780844802805DA234827
:10063000408861780844402802DB0020BDE8F08350
:10064000002530E0A7F12000617800FB01506168CF
:1006500031F81090002622E009FA06F000F400407C
:1006600058B1164A52882A4491B2144A1288324428
:1006700090B24246FFF7ACFE10E0B8F1000F01D196
:10068000012300E000231A460C4B5B882B4499B2EF
:100690000A4B1B88334498B2FFF79AFE761C2078E9
:1006A000B042D9D86D1C6078A842CBD803480088E6
:1006B00021780844014908803846BFE7340000200B
:1006C00070B504460D4616460AE0207832462946A3
:1006D000FFF7A2FF2178884201D0207870BD641C0A
:1006E00020780028F1D12078F8E7000038B5002400
:1006F00020E004F1B000C3B2002278210F4800F0DE
:1007000053FB00231A4678210C4800F04DFB1023C0
:1007100000227821094800F047FB8020009008481B
:10072000802101FB040340227821044800F06AFB89
:10073000601CC4B2082CDCDB38BD00000054004053
:100740008400002010B500F001F810BD0CB50020A9
:10075000019000903348006840F4803031490860CF
:1007600000BF3048006800F4003000900198401C41
:100770000190009818B90198B0F5A06FF1D12948FF
:10078000006800F4003010B10120009001E000206A
:1007900000900098012843D12348006840F01000E1
:1007A000214908600846006820F0030008600846F8
:1007B000006840F0020008601A4840681949486023
:1007C0000846406848600846406840F480604860D9
:1007D0000846406820F47C1048600846406840F4B1
:1007E000E81048600846006840F08070086000BF6C
:1007F0000C48006800F000700028F9D009484068F3
:1008000020F00300074948600846406840F00200B5
:10081000486000BF0348406800F00C000828F9D188
:100820000CBD000000100240002002400248006899
:10083000401C0149086070471800002010B513489B
:10084000006840F0010011490860084640681049FE
:1008500008400E494860084600680E4908400B49A8
:1008600008600846006820F4802008600846406858
:1008700020F4FE0048604FF41F008860FFF762FF1D
:100880004FF000600449086010BD000000100240F5
:100890000000FFF8FFFFF6FE08ED00E010B5394854
:1008A000806940F00900374988613748006940F4A1
:1008B0008851354801613548006820F4407033495B
:1008C00008600846006840F4006008600846006858
:1008D00020F4806008602E48006840F480602C4955
:1008E00008602B480830006840F4806028490831CF
:1008F0000860081D006840F48060091D08602348F6
:10090000006820F44050214908600846006840F41F
:10091000004008600846006820F4804008601C48D9
:10092000006840F400601A490860194808300068FF
:1009300040F400601649083108601648006820F04D
:100940000300144908600846006840F00800086089
:100950000846006820F0040008600D48006840F474
:1009600080700B4908600A480830006840F48070C5
:100970000749083108601720FFF71EFD2820FFF700
:100980001BFD10BD0010024000000140040C01409E
:100990000004014004080140002005490880044883
:1009A0002438008840F0010001492439088070474C
:1009B000240400400348008820F001000149088019
:1009C00070470000000400400346934201DB1046DC
:1009D00070478B4201DA0846FAE7D8B2F8E7000020
:1009E00010B50120064908700A21FFF751FD0122C8
:1009F000044905A0FFF764FE00200649087010BDF9
:100A00008000002024000020436F756E74206D6507
:100A10006E75000081000020044A116800BF034A7F
:100A20001268521A8242FAD3704700001800002060
:100A300000F036F80EE00020FFF71AFD0649074ADD
:100A4000127801EB0211064A127851F82200804711
:100A5000FFF74CFEEFE70000400000208000002080
:100A60008100002010B50020074908700A210120EC
:100A7000FFF70EFD0122054905A0FFF721FE00202A
:100A80000649087010BD00008000002024000020EE
:100A90004D61696E206D656E75000000810000205B
:100AA00070B5174800684FF47A72B0FBF2F1B1F1FB
:100AB000807F00D31DE021F07F40401E4FF0E022F8
:100AC000506150170F22002807DA13071D0E0D4B37
:100AD00000F00F04241F1D5503E013071C0E0A4BE2
:100AE0001C5400BF00204FF0E022906107201061ED
:100AF00000BFFFF7D3FCFFF7D1FE00F0A5F970BDF2
:100B00000000002018ED00E000E400E010B5032034
:100B10002E490870032200212D4890F90000FFF7AC
:100B200053FF40B22A490870084690F9000000EBD4
:100B300080004000401D81B20020FFF7A9FC012287
:100B4000244925A0FFF7BCFD05210820FFF7A0FCE4
:100B50000122204921A0FFF7B3FD0F210820FFF754
:100B600097FC01221B4922A0FFF7AAFD19210820AA
:100B7000FFF78EFC0122174921A0FFF7A1FD2321D9
:100B80000820FFF785FC0122124922A0FFF798FDFB
:100B900022480078012812D10D4890F9000030B1A8
:100BA000012805D0022804D0032807D102E005E07F
:100BB00004E003E000200549087000BF00BF0020EA
:100BC000034908701549087010BD0000800000201E
:100BD000140000201C0000203E00000053617665D8
:100BE00020746F20646174616261736500000000AD
:100BF0004564697420616E6420736176650000004D
:100C0000436F6E74696E756520636F756E74696E7F
:100C10006700000043616E63656C00008100002086
:100C200010B50A210120FFF733FC0122054906A077
:100C3000FFF746FD022007490870002006490870AA
:100C400010BD00002400002053657474696E677342
:100C50000000000080000020810000201E48C069C4
:100C600040F400101C49C8610846806940F0080043
:100C700088611A48008820F03F0040F0240017499E
:100C800008801648183000886FF30B0040F03700DA
:100C90001249183108800420091D08801048006896
:100CA00040F040600E4908600846006840F040404F
:100CB00008600846006840F0407008600846006818
:100CC00040F0405008600548001F008840F00100D7
:100CD0000249091F08807047001002400454004078
:100CE000000C014030B50446208840F4807020801C
:100CF00044F620601B4D286007E01A480068401E3B
:100D0000184D286008B9012030BDA08A00F001000C
:100D10000028F2D01BB1208840F480602080A2B966
:100D200021F00100208244F620600E4D286007E08B
:100D30000C480068401E0B4D286008B90120E3E70D
:100D4000A08A00F002000028F2D0012A06D141F06A
:100D50000100208244F62060024D2860208B002094
:100D6000D2E700003C000020014644F620600D4A16
:100D7000106007E00B480068401E0A4A106008B97E
:100D800001207047888A00F080000028F2D0888A0D
:100D900000F004000028EDD0088840F400700880BE
:100DA0000020EEE73C000020F0B506460F46144652
:100DB0001D4600231A4639463046FFF793FF214669
:100DC000304600F009F82946304600F005F8304674
:100DD000FFF7CAFFF0BD000044F62062084B1A601E
:100DE00004E0074A1268521E054B1A60828A02F01C
:100DF00080021AB9024A1268002AF2D101827047B1
:100E00003C0000202DE9F0430746884615461E4663
:100E1000DDF81C9000231A4641463846FFF762FF72
:100E200029463846FFF7D8FF002405E0315D3846F3
:100E3000FFF7D2FF601CC4B24C45F7DB3846FFF722
:100E400093FFBDE8F08300000A48C06940F002004B
:100E50000849C8610848006840084FF47A71B0FB3F
:100E6000F1F0401E0549088040F69F70091D08807A
:100E700070470000001002400000002028040040DD
:100E80000000000000000000000000000000000062
:100E900000000000001000100010001000100010F2
:100EA00000000010000000000028002800280000BA
:100EB00000000000000000000000000000240024EA
:100EC000007C00240048007C00480048000000002E
:100ED000003800540050003800140054005400380A
:100EE000001000000020005400580030002800547A
:100EF0000014000800000000001000280028001066
:100F000000340048004800340000000000100010C9
:100F100000100000000000000000000000000000C1
:100F200000080010002000200020002000200020E9
:100F30000010000800200010000800080008000849
:100F400000080008001000200010003800100028E1
:100F50000000000000000000000000000000000091
:100F600000100010007C00100010000000000000C5
:100F70000000000000000000000000000000001061
:100F80000010001000000000000000000000003809
:100F90000000000000000000000000000000000051
:100FA0000000000000000010000000000008000821
:100FB00000100010001000100020002000000000B1
:100FC0000038004400440054004400440044003809
:100FD0000000000000100030005000100010001051
:100FE000001000100000000000380044004400041D
:100FF000000800100020007C0000000000380044C1
:101000000004001800040004004400380000000040
:1010100000080018002800280048007C000800088C
:1010200000000000007C0040004000780004000444
:101030000044003800000000003800440040007800
:10104000004400440044003800000000007C00041C
:101050000008001000100020002000200000000008
:101060000038004400440038004400440044003884
:10107000000000000038004400440044003C00042C
:1010800000440038000000000000000000100000D4
:101090000000000000000010000000000000000040
:1010A0000000001000000000000000100010001000
:1010B00000000000000C003000400030000C000078
:1010C00000000000000000000000007C0000007C28
:1010D0000000000000000000000000000060001898
:1010E0000004001800600000000000000038004408
:1010F00000040008001000100000001000000000B4
:1011000000380044004C0054005C004000400038AF
:101110000000000000100028002800280028007CA3
:1011200000440044000000000078004400440078BF
:1011300000440044004400780000000000380044EF
:101140000040004000400040004400380000000023
:10115000007000480044004400440044004800700F
:1011600000000000007C00400040007C0040004087
:101170000040007C00000000007C0040004000783F
:1011800000400040004000400000000000380044E3
:1011900000400040005C00440044003800000000B3
:1011A000004400440044007C0044004400440044E7
:1011B00000000000003800100010001000100010A7
:1011C00000100038000000000004000400040004C7
:1011D00000040004004400380000000000440048FF
:1011E000005000600050004800480044000000002B
:1011F0000040004000400040004000400040007CB3
:10120000000000000044006C006C005400440044E6
:1012100000440044000000000044006400640054E6
:101220000054004C004C0044000000000038004412
:101230000044004400440044004400380000000022
:101240000078004400440044007800400040004022
:101250000000000000380044004400440044004402
:1012600000540038000400000078004400440044AA
:1012700000780048004800440000000000380044A6
:101280000040003000080004004400380000000066
:10129000007C001000100010001000100010001062
:1012A00000000000004400440044004400440044A6
:1012B00000440038000000000044004400440028BE
:1012C0000028002800100010000000000044004426
:1012D000005400540054006C002800280000000056
:1012E00000440028002800100010002800280044B6
:1012F00000000000004400440028002800100010F6
:101300000010001000000000007C00040008001025
:10131000001000200040007C0000000000180010B9
:101320000010001000100010001000100010001835
:10133000002000200010001000100010000800081D
:10134000000000000030001000100010001000101D
:101350000010001000100030001000280028004489
:10136000000000000000000000000000000000007D
:10137000000000000000000000000000000000FE6F
:10138000002000100000000000000000000000002D
:10139000000000000000000000380044003C004451
:1013A000004C003400000000004000400058006481
:1013B00000440044006400580000000000000000E9
:1013C00000380044004000400044003800000000A5
:1013D000000400040034004C00440044004C00347D
:1013E000000000000000000000380044007C0040C5
:1013F0000044003800000000000C0010007C0010C9
:10140000001000100010001000000000000000009C
:101410000034004C00440044004C003400040078C8
:101420000040004000580064004400440044004470
:1014300000000000001000000070001000100010FC
:1014400000100010000000000010000000700010EC
:101450000010001000100010001000E000400040DC
:1014600000480050006000500048004400000000A8
:10147000007000100010001000100010001000108C
:1014800000000000000000000078005400540054E8
:1014900000540054000000000000000000580064E8
:1014A000004400440044004400000000000000002C
:1014B00000380044004400440044003800000000AC
:1014C000000000000058006400440044006400581C
:1014D00000400040000000000034004C0044004484
:1014E000004C0034000400040000000000580064B8
:1014F00000400040004000400000000000000000EC
:1015000000380044003000080044003800000000AB
:10151000002000200078002000200020002000187B
:1015200000000000000000000044004400440044AB
:10153000004C0034000000000000000000440044A3
:101540000028002800280010000000000000000013
:10155000005400540054006C0028002800000000D3
:101560000000000000440028001000100028004483
:101570000000000000000000004400440028002893
:10158000001000100010006000000000007C000847
:10159000001000200040007C000000000018001037
:1015A0000010001000200020001000100010001893
:1015B00000100010001000100010001000100010AB
:1015C000001000100030001000100010000800088B
:1015D0000010001000100030000000000000007437
:1015E000004C0000000000000000000000000000AF
:1015F00000000000000000000000000000000000EB
:1016000000000000000000000000000000000000DA
:101610000000000C000C000C000C000C000C000C76
:10162000000C000C000C000C0000000C000C000072
:10163000000000000000001B001B001B001B001B23
:10164000000000000000000000000000000000009A
:1016500000000000000000000000801980198019BF
:101660008019C07FC07F80190033C07FC07F0033E6
:101670000033003300330000000000000000001EB3
:10168000003F807580650074003C001E00078005E7
:10169000806580658075003F001E00040004000026
:1016A0000000007000D840D8C0D880D90073000670
:1016B000000C801BC036C066C046C0068003000018
:1016C000000000000000001E003F00330033003324
:1016D000001E000CC03CC066806380618063C03E19
:1016E000801C0000000000000000000C000C000C3A
:1016F000000C000C000000000000000000000000D2
:101700000000000000000000000000008000000158
:101710000003000600060004000C000C000C000C86
:10172000000C000C0004000600060003000180000D
:10173000002000100018000C000C00040006000639
:1017400000060006000600060004000C000C00184D
:10175000001000200000000C002D003F001E003390
:101760000000000000000000000000000000000079
:101770000000000000000000000000000000000C5D
:10178000000C000C000CC0FFC0FF000C000C000C93
:10179000000C00000000000000000000000000003D
:1017A0000000000000000000000000000000000039
:1017B000000000000000000C000C00040004000801
:1017C0000000000000000000000000000000000019
:1017D0000000001E001E00000000000000000000CD
:1017E00000000000000000000000000000000000F9
:1017F0000000000000000000000000000000000CDD
:10180000000C0000000000000000000300030003C3
:101810000006000600060006000C000C000C000C80
:101820000018001800180000000000000000001E52
:10183000003F0033806180618061806D806D8061D8
:10184000806180610033003F001E00000000000046
:1018500000000006000E001E0036002600060006EE
:10186000000600060006000600060006000600004E
:10187000000000000000001E003F80738061806156
:10188000800100030006000C001800300060807F1B
:10189000807F0000000000000000001C003E00638C
:1018A00000630003000E000E0003800180018061D0
:1018B0008073003F001E00000000000000000006D2
:1018C000000E000E001E001E0016003600360066D8
:1018D000807F807F000600060006000000000000F8
:1018E0000000007F007F006000600060006E007FED
:1018F00080638001800180618073003F001E0000D2
:10190000000000000000001E003F80338061006086
:10191000006E007F80738061806180618033003F52
:10192000001E0000000000000000807F807F80011A
:101930000003000300060006000C000C000C000869
:101940000018001800180000000000000000001E31
:10195000003F8063806180610021001E003F806144
:10196000806180618061003F001E00000000000077
:101970000000001E003F0073806180618061807301
:10198000803F801D800180610073003F001E0000C9
:101990000000000000000000000000000000000C3B
:1019A000000C000000000000000000000000000C1F
:1019B000000C00000000000000000000000000001B
:1019C00000000000000C000C0000000000000000FF
:1019D0000000000C000C00040004000800000000DF
:1019E0000000000080008003000E00380060003816
:1019F000000E8003800000000000000000000000D6
:101A000000000000000000000000807F807F0000D8
:101A10000000807F807F00000000000000000000C8
:101A20000000000000000000000000000040007006
:101A3000001C000780010007001C0070004000002F
:101A400000000000000000000000001F803FC07187
:101A5000C060C000C00180030007000E000C000C35
:101A60000000000C000C0000000000000000001E40
:101A7000003F803180718063806F806D806D806FEA
:101A8000806700600032003E001C00000000000083
:101A90000000000E000E001B001B001B001B80310D
:101AA0008031803F803F8031C060C060C0600000F6
:101AB000000000000000007C007E00630063006303
:101AC0000063007E007E0063806180618063007F30
:101AD000007E0000000000000000001E003F80317A
:101AE00080610060006000600060006000608061F4
:101AF0008031003F001E0000000000000000007C5C
:101B0000007F0063806380618061806180618061AB
:101B1000806100630063007E007C00000000000024
:101B20000000807F807F0060006000600060007FB8
:101B3000007F0060006000600060807F807F0000A8
:101B4000000000000000807F807F00600060006077
:101B50000060007F007F0060006000600060006047
:101B600000600000000000000000001E003F803107
:101B700080610060006000608063806380618061DC
:101B80008031803F001E00000000000000008061E6
:101B900080618061806180618061807F807F806101
:101BA00080618061806180618061000000000000D0
:101BB0000000003F003F000C000C000C000C000C6B
:101BC000000C000C000C000C000C003F003F00005B
:101BD0000000000000008001800180018001800180
:101BE0008001800180018001806180618073003FFD
:101BF000001E0000000000000000C0608061006363
:101C000000660066006C0078007C00660066006379
:101C100080618061C0600000000000000000006082
:101C200000600060006000600060006000600060B4
:101C3000006000600060807F807F00000000000086
:101C40000000C071C071C07BC07AC06AC06AC06E3B
:101C5000C064C060C060C060C060C060C0600000A0
:101C600000000000000080718071807980798079A7
:101C7000806D806D806D8065806780678067806320
:101C800080630000000000000000001E003F0033E1
:101C9000806180618061806180618061806180613C
:101CA0000033003F001E0000000000000000007E26
:101CB000007F80638061806180618063007F007E3F
:101CC0000060006000600060006000000000000034
:101CD0000000001E003F00338061806180618061F0
:101CE00080618061806580670033803F401E000016
:101CF000000000000000007E007F80638061806142
:101D00008063007F007E0066006300638061806105
:101D1000C0600000000000000000000E001F8031C5
:101D2000803100300038001E000780038061806130
:101D30008031003F001E0000000000000000C0FFD6
:101D4000C0FF000C000C000C000C000C000C000C80
:101D5000000C000C000C000C000C00000000000047
:101D6000000080618061806180618061806180614C
:101D700080618061806180618073003F001E00008F
:101D8000000000000000C060C060C0608031803191
:101D90008031001B001B001B001B000E000E000EFC
:101DA00000040000000000000000C0C0C0C0C0C0AF
:101DB000C0C0C0C0C0CC804C804C805E805280527D
:101DC0008073806180610000000000000000C0C0DE
:101DD000806080610033003B001E000C000C001E80
:101DE000001F003B80718061C0C000000000000047
:101DF0000000C0C08061806100330033001E001EFF
:101E0000000C000C000C000C000C000C000C00007E
:101E1000000000000000803F803F800100030003BD
:101E20000006000C000C0018001800300060807FD5
:101E3000807F000000000000000F000F000C000C6D
:101E4000000C000C000C000C000C000C000C000C32
:101E5000000C000C000C000C000F000F000000181C
:101E600000180018000C000C000C000C0006000606
:101E7000000600060003000300030000000000004D
:101E8000001E001E000600060006000600060006F2
:101E90000006000600060006000600060006000612
:101EA000001E001E0000000C000C001E001200337B
:101EB000003380618061000000000000000000002D
:101EC0000000000000000000000000000000000012
:101ED0000000000000000000000000000000000002
:101EE0000000000000000000E0FF000000000038DB
:101EF0000018000C000000000000000000000000BE
:101F000000000000000000000000000000000000D1
:101F100000000000000000000000001F803F806102
:101F20008001801F803F80618063807FC038000017
:101F30000000000000000060006000600060006EB3
:101F4000007F807380618061806180618073007F29
:101F5000006E000000000000000000000000000013
:101F60000000001E003F807380610060006080619F
:101F70008073003F001E0000000000000000800190
:101F8000800180018001801D803F807380618061BD
:101F9000806180618073803F801D00000000000030
:101FA00000000000000000000000001E003F007361
:101FB0008061807F807F00608071003F001E000094
:101FC000000000000000C007C00F000C000C807F64
:101FD000807F000C000C000C000C000C000C000CAE
:101FE000000C0000000000000000000000000000E5
:101FF000801D803F8073806180618061806180731B
:10200000803F801D80018063007F003E00000060F3
:10201000006000600060006F807F8071806180617F
:10202000806180618061806180610000000000004B
:1020300000000006000600000000003E003E000612
:102040000006000600060006000600060006000066
:10205000000000000006000600000000003E003EF8
:102060000006000600060006000600060006000640
:1020700000060046007E003C00000060006000603A
:102080000060806100630066006C007C0076006385
:1020900000638061C0600000000000000000003E9E
:1020A000003E0006000600060006000600060006C8
:1020B0000006000600060006000600000000000002
:1020C0000000000000000000000080DDC0FFC0CE66
:1020D000C0CCC0CCC0CCC0CCC0CCC0CCC0CC00002C
:1020E0000000000000000000000000000000006F81
:1020F000807F8071806180618061806180618061AA
:1021000080610000000000000000000000000000EE
:102110000000001E003F80738061806180618061EB
:102120008073003F001E000000000000000000005F
:1021300000000000006E007F80738061806180611C
:1021400080618073007F006E00600060006000604E
:102150000000000000000000801D803F807380614F
:102160008061806180618073803F801D800180017B
:1021700080018001000000000000000000000067F6
:10218000803F003900300030003000300030003037
:10219000003000000000000000000000000000000F
:1021A0000000001E803F80610060007F803F800152
:1021B0008061007F001E00000000000000000000A1
:1021C000000800180018007F007F00180018001891
:1021D000001800180018801F800F00000000000089
:1021E000000000000000000000008061806180614C
:1021F00080618061806180618063807F803D0000BC
:102200000000000000000000000000000000C060AE
:10221000803180318031001B001B001B000E000E3E
:1022200000060000000000000000000000000000A8
:10223000000080DD80DD80DD005500550055007711
:1022400000770022002200000000000000000000D3
:10225000000000000000806100330033001E000C0D
:10226000000C001E003300338061000000000000FD
:1022700000000000000000008061806180310033B8
:102280000033001B001B001B000E000E000E001C84
:10229000007C007000000000000000000000C07F13
:1022A000C07F800100030006000C00180030C07FD2
:1022B000C07F0000000000008003800700060006C9
:1022C000000600060006000E001C001C000E0006A2
:1022D00000060006000600068007800300060006D0
:1022E00000060006000600060006000600060006BE
:1022F00000060006000600060006000600060006AE
:102300000038003C000C000C000C000C000C000E0F
:1023100000070007000E000C000C000C000C000C65
:10232000003C0038003C007E00E700C300C300C34F
:1023300000FF00FF00E700E700FF007E0000000054
:10234000000000000000000000000000000000008D
:10235000000000000000000000000000000000007D
:10236000000000000000000000000000000000006D
:10237000000000000000000000000000E003E00397
:10238000E003E003E003E003E003E003C003C00375
:10239000C001C001C001C001C00100000000000078
:1023A000E003E003E0030000000000000000000084
:1023B0003C1E3C1E3C1E3C1E3C1E3C1E3C1E0000A7
:1023C000000000000000000000000000000000000D
:1023D00000000000000000000000000000000000FD
:1023E00000000000CE01CE03DE039E039C039C0789
:1023F000FF3FFF7F3807380F780F780F780EFFFF09
:10240000FFFFF01EF01CE01CE03CE03DE039000066
:102410000000000000000000FC03FE0FEE1FE01EA5
:10242000E01EE01EE01EE01FE00FE007F003FC01ED
:10243000FE01FE01FE01FE01FE01FE01FE3DFC3F2C
:10244000F00FE001E001000000000000033E07F78C
:102450008FE78EE79EE3BCE3B8E7F8E7F0F7E03FED
:10246000C001FF03FF07F307F30FF31EF33CF3383C
:10247000F3787FF03FE00000000000000000000063
:10248000E007F80F780F781F781F781F780FF00F8C
:10249000E00F801FC37FC3FBE7F3F7F1F7F0FFF016
:1024A0007FF03EF87F7CFF3FEF1F00000000000040
:1024B00000000000E003E003E003E003E003C003EA
:1024C000C00100000000000000000000000000004B
:1024D00000000000000000000000000000000000FC
:1024E00000000000000000003F007C00F001E0015F
:1024F000C003C00780078007800F000F000F000F88
:10250000000F000F000F800F80078007C007C00377
:10251000E001F0017C003F000F000000007E001F82
:10252000C007C003E001F001F000F000F8007800FF
:1025300078007800780078007800F800F000F0006B
:10254000F001E001C003C007001F007E007800001A
:10255000E003C003C001CE39FF3F7F3F200370037B
:10256000F807780F3C1F380600000000000000004C
:10257000000000000000000000000000000000005B
:10258000000000000000000000000000000000004B
:10259000C001C001C001C001C001C001C001FFFFF6
:1025A000FFFFC001C001C001C001C001C0010000A7
:1025B000000000000000000000000000000000001B
:1025C000000000000000000000000000000000000B
:1025D00000000000000000000000E003E003E00352
:1025E000E003E001E001E001C00180030000000021
:1025F00000000000000000000000000000000000DB
:102600000000FE3FFE3F0000000000000000000050
:1026100000000000000000000000000000000000BA
:1026200000000000000000000000000000000000AA
:10263000000000000000000000000000000000009A
:102640000000E003E003E003E003000000000000FE
:10265000000000000F000F001E001E003C003C00A8
:1026600078007800F000F000E001E001C003C00352
:1026700080078007000F000F001E001E003C003C7A
:102680000078007800F00000F007F80F7C1F3E3E55
:102690001E3C1F7C1F7C0F780F780F780F780F7807
:1026A0000F780F781F7C1F7C1E3C3E3E7C1FF80F6E
:1026B000F00700000000000000000000F000F0073C
:1026C000F03FF03FF001F001F001F001F001F00106
:1026D000F001F001F001F001F001F001F001F00172
:1026E000F001FF3FFF3F000000000000000000007D
:1026F000E00FF83F7C3C3C003E003E003E003C00CA
:102700003C007C00F800F001E003C0078007000FE8
:10271000001E003E003CFE3FFE3F000000000000A7
:1027200000000000F00FF81F7C1C3E003E003E0041
:102730003C003C00F800F00FF80F7C003E001E004B
:102740001E001E001E003E007C1CF81FE01F000043
:1027500000000000000000007800F800F800F80118
:10276000F803F807F807780F781E781E783C787819
:102770007878FFFFFFFF7800780078007800780015
:10278000780000000000000000000000FC1FFC1F9B
:10279000FC1F001E001E001E001E001EE01FF81F72
:1027A000FC007C003E003E001E003E003E003C005F
:1027B0007C1CF81FE01F000000000000000000006B
:1027C000FC01FE078E0F001F001E003E003C003C77
:1027D000F83DFC3F3E7F1F7E0F3C0F3C0F3C0F3C03
:1027E0000F3E1F1E3E1FFC0FF00300000000000004
:1027F00000000000FF3FFF3FFF3F0F001E001E00D4
:102800003C0038007800F000F000E001E001C00377
:10281000C0038007800F800F000F001F001F000003
:102820000000000000000000F807FC0F3E1F1E1E05
:102830001E3E1E3E1E1E3C1FF80FF007F80FFC1E2A
:102840003E3E1F3C1F7C0F7C0F7C1F3C3E3FFC1F0D
:10285000F00700000000000000000000F007F80F83
:102860007C1E3E3C1E3C1F7C1F7C1F7C1F7C1F3C33
:102870003F3EFF1FEF071F001E001E003E003C00F2
:10288000F838F03FE01F00000000000000000000EA
:10289000000000000000000000000000E003E00372
:1028A000E003E00300000000000000000000000062
:1028B0000000E003E003E003E0030000000000008C
:1028C0000000000000000000000000000000000008
:1028D000E003E003E003E00300000000000000006C
:1028E000000000000000E003E003E003E003E0017B
:1028F000E001E001C00380030000000000000000D0
:102900000000000003000F003F00FC00F003C00FB8
:10291000003F00FE003FC00FF003FC003F000F002F
:1029200003000000000000000000000000000000A4
:102930000000000000000000000000000000000097
:10294000FFFFFFFF000000000000FFFFFFFF00008F
:102950000000000000000000000000000000000077
:1029600000000000000000000000000000E000F88F
:10297000007E801FE007F8017E001F007E00F80146
:10298000E007801F007E00F800E00000000000006B
:1029900000000000F01FFC3F3E381F381F381E00AB
:1029A0001E003C007800F000E001C003C003C00737
:1029B000C007000000000000C007C007C0070000FB
:1029C0000000000000000000F803FE0F1E1F0F3E75
:1029D0007F3CFF78EF79C773C7F38FF38FF38FF3E3
:1029E0009FF39FF3FF73FF7BF779003C1C1FFC0FE5
:1029F000F8030000000000000000000000000000DC
:102A00000000E003E003F007F007F007780F780F0D
:102A10007C0E3C1E3C1E3E3CFE3FFF3F1F780F7865
:102A20000FF007F007F000000000000000000000B9
:102A3000000000000000F83FFC3F3E3C1E3C1E3CF6
:102A40001E3C3E3C7C3CF03FF83F7E3C1F3C1F3C24
:102A50000F3C0F3C1F3CFE3FF83F00000000000011
:102A600000000000000000000000FF01FF07871FBA
:102A7000003E003C007C0078007800780078007808
:102A8000007C007C003E003F831FFF07FF01000029
:102A90000000000000000000000000000000F07FC7
:102AA000FC7F7E781F781F780F780F780F780F786B
:102AB0000F780F780F780F781F781E787E78F87F60
:102AC000E07F0000000000000000000000000000A7
:102AD0000000FF3FFF3F003E003E003E003E003E44
:102AE000003EFE3FFE3F003E003E003E003E003EF8
:102AF000003EFF3FFF3F000000000000000000001C
:102B0000000000000000FF1FFF1F001E001E001E2F
:102B1000001E001E001EFF1FFF1F001E001E001EC5
:102B2000001E001E001E001E001E0000000000000F
:102B300000000000000000000000FE03FF0F871FE0
:102B4000003E007C007C007800F800F87FF87FF8F9
:102B50000F780F7C0F7C0F3E8F1FFF0FFE030000CE
:102B600000000000000000000000000000001F7CCA
:102B70001F7C1F7C1F7C1F7C1F7C1F7C1F7CFF7F9A
:102B8000FF7F1F7C1F7C1F7C1F7C1F7C1F7C1F7C8A
:102B90001F7C00000000000000000000000000009A
:102BA0000000FF3FFF3FE003E003E003E003E0033A
:102BB000E003E003E003E003E003E003E003E003FD
:102BC000E003FF3FFF3F00000000000000000000A6
:102BD000000000000000FC1FFC1F7C007C007C004B
:102BE0007C007C007C007C007C007C007C007C0005
:102BF00078007800F838F03FC03F00000000000087
:102C0000000000000000000000001F3C1E3C3C3C97
:102C1000783CF03CE03DE03FC03F803FC03FE03FBC
:102C2000F03DF03C783C7C3C3E3C1F3C0F3C0000BF
:102C30000000000000000000000000000000003E56
:102C4000003E003E003E003E003E003E003E003E94
:102C5000003E003E003E003E003E003E003EFF3F84
:102C6000FF3F000000000000000000000000000026
:102C700000001FF81FFC1FFC3FFE3FFE3FFE7FFFD2
:102C800077FF77FFF7F7E7F7E7F3E7F3C7F307F027
:102C900007F007F007F0000000000000000000004F
:102CA0000000000000000F7C0F7C0F7E0F7F0F7F65
:102CB0008F7F8F7FCF7FEF7BEF79FF79FF78FF7872
:102CC0007F783F783F781F781F7800000000000071
:102CD00000000000000000000000F007FC1F3E3E66
:102CE0001F7C0F780F780FF80FF80FF80FF80FF818
:102CF0000FF80F780F781F7C3E3EFC1FF007000096
:102D00000000000000000000000000000000FC3F88
:102D1000FF3F1F3E0F3E0F3E0F3E0F3E1F3E3F3E0A
:102D2000FC3FF03F003E003E003E003E003E003EC5
:102D3000003E000000000000000000000000000055
:102D40000000F007FC1F3E3E1F7C0F780F780FF845
:102D50000FF80FF80FF80FF80FF80F780F781F7CA7
:102D60003E3EFC1FF8077C003F000F000300000000
:102D7000000000000000F03FFC3F7E3C3E3C1E3C5B
:102D80001E3C3E3C3C3CFC3CF03FE03FF03DF83C10
:102D90007C3C3E3C1E3C1F3C0F3C00000000000001
:102DA00000000000000000000000FC07FE1F0E3EB7
:102DB000003C003C003C003EC01FF80FFE037F00BB
:102DC0001F000F000F001F203E3CFC3FF01F0000C3
:102DD0000000000000000000000000000000FFFFF5
:102DE000FFFFE003E003E003E003E003E003E003B0
:102DF000E003E003E003E003E003E003E003E003BB
:102E0000E0030000000000000000000000000000DF
:102E100000000F7C0F7C0F7C0F7C0F7C0F7C0F7CE5
:102E20000F7C0F7C0F7C0F7C0F7C0F7C1E3C1E3CAC
:102E30003E3EFC1FF0070000000000000000000004
:102E400000000000000007F007F007F80F780F7C83
:102E50001E3C1E3C1E3E3C1E3C1F781F780FF80F88
:102E6000F007F007F007E003E003000000000000B7
:102E70000000000000000000000003E003F003F089
:102E800007F0E7F3E7F3E7F3E773F77BF77FFF7FFD
:102E90007F7F7F7F7E7F7E3F3E3E3E3E3E3E000008
:102EA000000000000000000000000000000007F823
:102EB0000F7C1E3E3E3E3C1FF80FF007E007E0038C
:102EC000E003F007F80F7C0F7C1E3E3C1F780F7864
:102ED0000FF00000000000000000000000000000F3
:102EE000000007F807780F7C1E3C1E3E3C1F780F41
:102EF000F80FF007E003E003E003E003E003E00382
:102F0000E003E003E0030000000000000000000018
:102F1000000000000000FF7FFF7F0F001F003E0049
:102F20007C00F800F000E001E003C007800F000F14
:102F3000001E003E007CFF7FFF7F000000000000BD
:102F400000000000FF0780078007800780078007D8
:102F50008007800780078007800780078007800739
:102F60008007800780078007800780078007800729
:102F70008007FF07FF07000000780078003C003C56
:102F8000001E001E000F000F80078007C003C00353
:102F9000E001E001F000F000780078003C003C0027
:102FA0001E001E000F000F0007000000F07FF00061
:102FB000F000F000F000F000F000F000F000F00091
:102FC000F000F000F000F000F000F000F000F00081
:102FD000F000F000F000F000F000F07FF07F000063
:102FE000C000C001C001E003E003F007F00778076C
:102FF000780F380F3C1E3C1E1E3C1E3C0F380F78CD
:103000000778000000000000000000000000000041
:1030100000000000000000000000000000000000B0
:1030200000000000000000000000000000000000A0
:103030000000000000000000000000000000FFFF92
:10304000FFFF000000000000F00000000000000092
:103050000000000000000000000000000000000070
:103060000000000000000000000000000000000060
:103070000000000000000000000000000000000050
:103080000000000000000000F80FFC3F7C3C3E0008
:103090003E003E00FE07FE1F3E3E3E7C3E783E7CEC
:1030A0007E7CFF3FCF1F00000000000000000000FA
:1030B000003C003C003C003C003C003CF83DFE3F36
:1030C0003E3F1F3E0F3C0F3C0F3C0F3C0F3C0F3C64
:1030D0001F3C1E3C3E3FFC3FF03B00000000000058
:1030E00000000000000000000000000000000000E0
:1030F000FE03FF0F871F003E003E003C007C007C6B
:10310000007C003C003E003E871FFF0FFE030000D6
:1031100000000000000000001F001F001F001F0033
:103120001F001F00FF07FF1F3F3E1F3C1F7C1F7C2F
:103130001F7C1F781F781F7C1F7C3F3C7F3EFF1F3A
:10314000DF0F000000000000000000000000000091
:103150000000000000000000F803FC0F3E1F1E3EB0
:103160001F3C1F7CFF7FFF7F007C007C003C003EFB
:10317000071FFF0FFE03000000000000000000001A
:10318000FF01E103C003C007C007C007FF7FFF7F47
:10319000C007C007C007C007C007C007C007C007F7
:1031A000C007C007C007C007C0070000000000003C
:1031B000000000000000000000000000000000000F
:1031C000EF07FF1F7F3E1F3C1F7C1F7C1F781F786F
:1031D0001F781F7C1F7C3F3C7F3EFF1FDF0F1E00C0
:1031E0001E001E007C38F83F003C003C003C003CC8
:1031F000003C003CFC3DFE3F9E3F1F3F1F3E1F3CEE
:103200001F3C1F3C1F3C1F3C1F3C1F3C1F3C1F3CE6
:103210001F3C00000000000000000000F001F00171
:103220000000000000000000E07FE07FE001E0011E
:10323000E001E001E001E001E001E001E001E00186
:10324000E001E001E00100000000000000000000DB
:10325000F800F8000000000000000000F83FF83F10
:10326000F800F800F800F800F800F800F800F8009E
:10327000F800F800F800F800F800F800F800F00096
:10328000F071E07F003C003C003C003C003C003C16
:103290001F3C3E3C7C3CF83CF03DE03DC03FC03F25
:1032A000E03FF03DF83C7C3C3E3C1F3C1F3C0000B6
:1032B0000000000000000000F07FF001F001F001CC
:1032C000F001F001F001F001F001F001F001F00176
:1032D000F001F001F001F001F001F001F001F00166
:1032E000F0010000000000000000000000000000ED
:1032F00000000000000000009EF7FFFFFFFFFFFF3F
:10330000E7FBE7F9C7F1C7F1C7F1C7F1C7F1C7F1AB
:10331000C7F1C7F1C7F10000000000000000000085
:10332000000000000000000000000000FC3DFE3F27
:103330009E3F1F3F1F3E1F3C1F3C1F3C1F3C1F3C2E
:103340001F3C1F3C1F3C1F3C1F3C000000000000B6
:10335000000000000000000000000000000000006D
:10336000F007FC1F3E3E1F3C1F7C0F780F780F7844
:103370000F780F781F7C1F3C3E3EFC1FF0070000BB
:10338000000000000000000000000000000000003D
:1033900000000000F83DFE3F3E3F1F3E0F3C0F3C4B
:1033A0000F3C0F3C0F3C0F3C1F3C1E3E3E3FFC3F82
:1033B000F83F003C003C003C003C003C00000000AA
:1033C0000000000000000000EE07FE1F7E3E1E3CD5
:1033D0001E7C1E781E781E781E781E781E7C3E7C11
:1033E0007E3EFE1FDE0F1E001E001E001E001E0081
:1033F0000000000000000000000000007F1FFF1F11
:10340000E71FC71F871F001F001F001F001F001F8F
:10341000001F001F001F001F001F00000000000011
:10342000000000000000000000000000000000009C
:10343000FC07FE1F0E1E003E003E003FE01FFC0783
:10344000FE003E001E001E003E3CFC3FF01F000040
:1034500000000000000000000000000000008007E5
:1034600080078007FF7FFF7F800780078007800736
:10347000800780078007800780078007C007FF0359
:10348000FF0100000000000000000000000000003C
:1034900000000000000000001E3C1E3C1E3C1E3CC4
:1034A0001E3C1E3C1E3C1E3C1E3C1E3C3E3C7E3CCC
:1034B000FE3EFE1FDE0F00000000000000000000C6
:1034C00000000000000000000000000007F00F787E
:1034D0000F781E3C1E3C1E3E3C1E3C1E780F780F93
:1034E000F00FF007F007E003E00300000000000029
:1034F00000000000000000000000000000000000CC
:1035000003F0E3F1E3F3E7F3F7F3F7F3F77F777F04
:103510007F7F7F7F7F7F3E3E3E3E3E3E3E3E0000C1
:10352000000000000000000000000000000000009B
:10353000000000000F7C1E3E3C3E3C1FF80FF007D1
:10354000F007E003F007F807F80F7C1E3E3E1F3C33
:103550001F780000000000000000000000000000D4
:10356000000000000000000007F80F780F7C1E3CF0
:103570001E3C3C1E3C1E3C1F780FF80FF007F00766
:10358000E003E003C003C003C0038007800F007F97
:10359000000000000000000000000000FF3FFF3FAF
:1035A0001F003E007C00F800F001E003C007800F20
:1035B000001F001E003CFF7FFF7F00000000000096
:1035C00000000000FE01E003C003C003C003C0030D
:1035D000E001E001E001C001C003803F803FC00383
:1035E000C001E001E001E001C003C003C003C0036B
:1035F000E003FE017E000000C001C001C001C00167
:10360000C001C001C001C001C001C001C001C001B2
:10361000C001C001C001C001C001C001C001C001A2
:10362000C001C001C001C001C0010000C03FE003F3
:10363000E001E001E001E001C001C003C003C001FE
:10364000E001FE00FE00E001C001C003C003C001B4
:10365000E001E001E001E001E003C03F003F0000C5
:10366000000000000000000000000000000000005A
:10367000000000000000073FC77FE773FFF17EF006
:10368000000000000000000000000000000000003A
:1036900000000000B4360008000000208400000094
:1036A000280100083837000884000020640A000060
:1036B0004401000800A24A040000000000000000CD
:1036C00001020304060708090000000000000000D2
:1036D000070A0000800E00080B120000EC1500081D
:1036E000101A00004823000800000000000000003D
:1036F00000000000650A0008E1090008210C00082C
:10370000650A0008E1090008E10900080D0B00083E
:103710000D0B0008210C0008210C0008650A0008A8
:10372000210C00080D0B00080D0B00080D0B000804
:083730000D0B00080000000071
:040000050800018965
:00000001FF
